:100000000C9434000C9451000C9451000C94510049
:100010000C9451000C9451000C9451000C9451001C
:100020000C9451000C9451000C9451000C9451000C
:100030000C9451000C9451000C9451000C945100FC
:100040000C9451000C9451000C9451000C945100EC
:100050000C9451000C9451000C9451000C945100DC
:100060000C9451000C94510011241FBECFEFD8E026
:10007000DEBFCDBF11E0A0E0B1E0E0EBF1E002C0F7
:1000800005900D92AC30B107D9F711E0ACE0B1E0CA
:1000900001C01D92AF30B107E1F70E948E000C94B1
:1000A000D6000C940000843638F46AE00E94CA003E
:1000B00090930E0180930D01089518B8ACE0B1E063
:1000C0008C91E82FE095E170E0FB80F98C93F0E0F3
:1000D000E45FFE4FE181F0E0EE5FFE4F80818095AE
:1000E0008BB98C91282F217030E0F901E050FF4F3F
:1000F000808188B9089582E08093B0001092B200A8
:1001000081E08093B100E3EBF0E080818160808347
:10011000E0E7F0E08081826080830895CF93DF93F1
:100120001F92CDB7DEB72FEF2AB923E027B9209170
:100130000C01216020930C0110920E0110920D0110
:1001400022E028B920910C01822F817090E0FC01FF
:10015000E45FFE4FE181F0E0EE5FFE4F808180952D
:100160008BB910E080E089830E945D00E3ECF9E048
:100170003197F1F700C000008981123349F48436C9
:1001800009F480E011E0180F0E945300812F10E065
:100190001F5FE9CF991B79E004C0991F961708F0FB
:1001A000961B881F7A95C9F780950895F894FFCF1C
:0C01B000010277245D6D2E6B7B257F6FB4
:00000001FF
