:100000000C9434000C9451000C9451000C94510049
:100010000C9451000C9451000C9451000C94A900C4
:100020000C9451000C9451000C9451000C9451000C
:100030000C9451000C9451000C9451000C945100FC
:100040000C9451000C9451000C9451000C945100EC
:100050000C9451000C94DE000C9451000C9451004F
:100060000C9451000C94510011241FBECFEFD8E026
:10007000DEBFCDBF11E0A0E0B1E0EAE4F3E002C0F2
:1000800005900D92A033B107D9F711E0A0E3B1E0DC
:1000900001C01D92AA33B107E1F70E945D010C94E3
:1000A000A3010C940000843638F46AE00E948301B6
:1000B00090933701809336010895CF93DF93AC017D
:1000C00090E0292F30E0973019F49093340116C056
:1000D00081E0890FF901EE0FFF1FEE0FFF1FE050C7
:1000E000FF4F608171816417750710F4982FE9CF75
:1000F00090933401911102C080E027C0F901EE0F06
:10010000FF1FEE0FFF1FE450FF4FC281D381A0817C
:10011000B1814A1B5B0B220F331F220F331FF901E2
:10012000E050FF4F228133812C1B3D0B429FC001C9
:10013000439F900D529F900D1124608171816A1B25
:100140007B0B0E948F018C2F860FDF91CF910C9437
:1001500053001F920F920FB60F9211242F933F93CB
:100160008F93AF93BF93EF93FF9318B8A5E3B1E0DC
:100170008C91E82FE095E170E0FB80F98C93F0E042
:10018000EB5CFE4FE181F0E0EA5DFE4F80818095FF
:100190008BB98C91282F217030E0F901EC5DFE4F76
:1001A000808188B9FF91EF91BF91AF918F913F917D
:1001B0002F910F900FBE0F901F9018951F920F92C6
:1001C0000FB60F9211242F933F934F935F936F932A
:1001D0007F938F939F93AF93BF93EF93FF93809100
:1001E000780090E090933901809338012091790054
:1001F000922B90933901809338010E945D00FF910A
:10020000EF91BF91AF919F918F917F916F915F918E
:100210004F913F912F910F900FBE0F901F90189507
:10022000A0E7B0E08C918D7F8C93E0EBF0E08081D3
:100230008F77808380818F7B8083808182608083C1
:1002400080818E7F8083E6EBF0E080818F7D8083EC
:10025000E1EBF0E08081807F82608083E3EBF0E07F
:10026000808183E18083E2EBF0E0808110828C91D9
:1002700082608C930895ECE7F0E080818064808355
:1002800080818160808380818460808380818F7D94
:100290008083E4E6F0E080818E7F8083EAE7F0E00F
:1002A0008081886080838081806280838081806893
:1002B000808380818064808308952AB12FEF2AB9DA
:1002C00027B1236027B920913501216020933501A2
:1002D000109237011092360122E028B920913501A1
:1002E000822F817090E0FC01EB5CFE4FE181F0E039
:1002F000EA5DFE4F808180958BB978940E943B0126
:100300000E941001FFCF991B79E004C0991F961736
:1003100008F0961B881F7A95C9F780950895AA1B47
:10032000BB1B51E107C0AA1FBB1FA617B70710F0E0
:10033000A61BB70B881F991F5A95A9F78095909512
:0A034000BC01CD010895F894FFCF31
:10034A00F100000057010A00BD01140037021E0027
:10035A009C022800F102320067033C008E0346002B
:10036A00AA035000010277245D6D2E6B7B257F6FF7
:00000001FF
