:100000000C9434000C9451000C9451000C94510049
:100010000C9451000C9451000C9451000C945D0010
:100020000C9451000C9451000C9451000C9451000C
:100030000C9451000C9451000C9451000C945100FC
:100040000C9451000C9451000C9451000C945100EC
:100050000C9451000C9451000C9451000C945100DC
:100060000C9451000C94510011241FBECFEFD8E026
:10007000DEBFCDBF11E0A0E0B1E0ECEFF1E002C0E7
:1000800005900D92AC30B107D9F711E0ACE0B1E0CA
:1000900001C01D92AF30B107E1F70E94BD000C9482
:1000A000FC000C940000843638F46AE00E94F000F2
:1000B00090930E0180930D0108951F920F920FB639
:1000C0000F9211242F933F938F93AF93BF93EF938E
:1000D000FF9318B8ACE0B1E08C91E82FE095E170A7
:1000E000E0FB80F98C93F0E0E45FFE4FE181F0E00B
:1000F000EE5FFE4F808180958BB98C91282F217007
:1001000030E0F901E050FF4F808188B9FF91EF9115
:10011000BF91AF918F913F912F910F900FBE0F9094
:100120001F901895A0E7B0E08C918D7F8C93E0EB49
:10013000F0E080818F77808380818F7B80838081D6
:100140008260808380818E7F8083E6EBF0E0808117
:100150008F7D8083E1EBF0E08081807F826080830F
:10016000E3EBF0E0808183E18083E2EBF0E08081EB
:1001700010828C9182608C9308952AB12FEF2AB956
:1001800027B1236027B920910C01216020930C0135
:1001900010920E0110920D0122E028B920910C015D
:1001A000822F817090E0FC01E45FFE4FE181F0E07E
:1001B000EE5FFE4F808180958BB978940E9492000B
:1001C00080E0C1E0C80F0E94530083E294EF0197E2
:1001D000F1F700C00000C43609F4C0E08C2FF1CF65
:1001E000991B79E004C0991F961708F0961B881F89
:0C01F0007A95C9F780950895F894FFCF28
:0C01FC00010277245D6D2E6B7B257F6F68
:00000001FF
