:100000000C9434000C9449000C9449000C94490061
:100010000C9449000C9449000C9449000C9449003C
:100020000C9449000C9449000C9449000C9449002C
:100030000C9449000C9449000C9449000C9449001C
:100040000C9449000C9449000C9449000C9449000C
:100050000C9449000C9449000C9449000C944900FC
:100060000C9449000C94490011241FBECFEFD8E036
:10007000DEBFCDBF11E0A0E0B1E0EEECF0E002C0E9
:1000800005900D92AA30B107D9F70E944B000C944D
:1000900065000C9400008FEF8AB91BB8E0E081E0A6
:1000A0008E0FF0E0E050FF4F908190959BB98A3021
:1000B00008F080E02FE33DE093E021503040904095
:0E00C000E1F700C00000E82FEACFF894FFCF70
:0A00CE0077245D6D2E6B7B257F6F9C
:00000001FF
