:100000000C9434000C943E000C943E000C943E0082
:100010000C943E000C943E000C943E000C943E0068
:100020000C943E000C943E000C943E000C943E0058
:100030000C943E000C943E000C9440000C943E0046
:100040000C943E000C943E000C943E000C943E0038
:100050000C943E000C943E000C943E000C943E0028
:100060000C943E000C943E0011241FBECFEFD8E04C
:10007000DEBFCDBF0E9467000C946C000C940000A2
:100080001F920F920FB60F9211248F939F9398B1E6
:1000900088E0892788B99F918F910F900FBE0F90AC
:1000A0001F901895EEE6F0E080818D7F808384B507
:1000B00082E084BD85B5807F846085BD87B586E993
:1000C00087BD86B516BC80818260808308953B9A87
:0C00D00078940E945200FFCFF894FFCFFC
:00000001FF
